:10000000001000208D000000E9000000E900000061
:1000100000000000000000000000000000000000E0
:10002000000000000000000000000000E9000000E7
:100030000000000000000000E9000000E9000000EE
:10004000E9000000E9000000E9000000E90000000C
:10005000E9000000E9000000E9000000E9000000FC
:10006000E900000025090000E9000000E9000000A7
:10007000E9000000E9000000E9000000E9000000DC
:10008000E9000000E9000000E900000080B582B04E
:1000900000AF104B7B60104B3B6007E03B681A1DC4
:1000A0003A607A68111D796012681A603A680B4BE1
:1000B0009A42F3D30A4B3B6004E03B681A1D3A6056
:1000C00000221A603A68074B9A42F6D300F036FADB
:1000D000FEE7C046B41D00000000002074000020B0
:1000E000740000202005002080B500AFFEE7FFFF70
:1000F00080B500AF034B802292009A61C046BD4696
:1001000080BDC0460044004180B500AF034B802253
:1001100092005A61C046BD4680BDC04600440041C1
:1001200080B500AF084B802292009A60064A0649CB
:100130004923CB5CDBB202210B43D9B24923D15412
:10014000C046BD4680BDC0460044004180B582B077
:1001500000AF1F4B1F4A5A601F4BC222D2009A6049
:100160001E4B1B689B0E7B601D4B1B689B059B0DEC
:100170003B60194B00229A84C046174BDB68102263
:100180001340FAD0144B174ADA62134B7A68920282
:100190001204110C3A689205920D0A439A620E4BB2
:1001A000932252009A84C0460B4BDB681022134006
:1001B000FAD00D4B0D4A5A60C0460B4B5B78DBB250
:1001C0005BB2002BF9DBC046BD4602B080BDC04625
:1001D000004000410400040000080040246080004A
:1001E0002860800080BB0000000C00400007210058
:1001F00080B500AF074B00229A60064BFA225201ED
:100200005A60044B01221A60034B00221A60C04658
:10021000BD4680BD10E000E00401002080B500AFC5
:10022000064B1A6880235B02134004D0044B1B6802
:100230005A1C034B1A60C046BD4680BD10E000E06A
:100240000401002080B500AF024B1B681800BD46BA
:1002500080BDC0460401002080B582B000AF02001E
:10026000FB1D1A70FB1D1B78002B04D0FFF758FFF5
:10027000FFF74AFF03E0FFF753FFFFF739FFC046E0
:10028000BD4602B080BDFFFF80B582B000AF020066
:10029000FB1D1A70184B1B7801225340DBB2002B58
:1002A0000DD0FB1D1B78002B09D00120FFF7D4FFD8
:1002B000FFF7C8FF030014331A00104B1A600E4BEF
:1002C0001B78002B10D0FB1D1B7801225340DBB2A2
:1002D000002B09D00120FFF7BFFFFFF7B3FF03009A
:1002E00014331A00054B1A60034BFA1D12781A706A
:1002F000C046BD4602B080BD0C01002010010020A8
:1003000080B500AF094B1B68002B0CD0FFF79AFF9C
:100310000200064B1B689A4205DD0020FFF79CFF98
:10032000024B00221A60C046BD4680BD100100206D
:1003300080B500AF024B01221A70C046BD4680BD99
:100340000000002080B500AF0B4B00221A700B4B51
:100350001B68403B5A425341DAB2094B1A70074BB3
:100360001A68084B1100180001F0DEF8034B002258
:100370001A60C046BD4680BD00000020FC00002081
:1003800000010020B400002080B582B000AF78608A
:10039000044B00221A60044B7A681A60C046BD46BE
:1003A00002B080BDF8000020F400002080B582B0CB
:1003B00000AF7860044B4021180001F0C4F8C0463B
:1003C000BD4602B080BDC0467400002080B582B03A
:1003D00000AF78607B68180000F056F9C046BD4653
:1003E00002B080BD80B582B000AF78607B6801222A
:1003F00013405A1E9341DBB21800FFF745FFC04679
:10040000BD4602B080BDFFFF80B500AF20E0154BB8
:100410001B68154AD35C180000F008FA03001A00A4
:1004200001235340DBB2002B17D10E4B1B685A1C23
:100430000C4B1A600D4B1B685A1E0C4B1A600B4B71
:100440001B68002B04D1084B4021180001F07BF8F9
:10045000064B1B68002BDAD100E0C046C046BD4603
:1004600080BDC046F800002074000020F400002089
:1004700080B582B000AF154B1B7801225340DBB230
:10048000002B1ED116E0FFF7DDFE03000A331A0031
:100490000F4B1A600F4B1B68591C0E4A11607A688B
:1004A000D1B20D4AD1540B4B1B68402B02D1FFF740
:1004B00049FF07E03B1D180000F0F8F9031EE2D1E8
:1004C00000E0C046BD4602B080BDC046000000202E
:1004D00008010020FC000020B400002080B500AF1F
:1004E0000D4B1B68002B13D0FFF7ACFE02000A4B2C
:1004F0001B689A420CDD094B1B78002B03D1084B7B
:100500001B68002B01D0FFF71DFF034B00221A6070
:10051000C046BD4680BDC046080100200001002045
:10052000FC00002080B582B000AF78607B681800C6
:1005300001F018F8C046BD4602B080BD80B500AFDE
:10054000FFF704FEFFF754FE01F0F0F800F0AEFFF5
:100550000020FFF781FEFFF761FE00F089FEFFF744
:1005600053FFFFF785FFFFF7B9FFFFF7C9FEF2E77B
:1005700080B582B000AF0200FB1D1A70064BFA1D59
:10058000127811001F220A40012191400A001A60CE
:10059000C046BD4602B080BD00E100E080B582B03B
:1005A00000AF0200FB1D1A70074AFB1D1B781900E3
:1005B0001F230B40012199400B0019008023D150CB
:1005C000C046BD4602B080BD00E100E090B583B0FA
:1005D00000AF78600F4A0F494423CB5CDBB20121A6
:1005E0000B43D9B24423D1540A497B68DBB21A1CAD
:1005F0000F231340D8B232228B5C0F2404400F200B
:100600008343181C231C03438B54C046BD4603B0D0
:1006100090BDC0460044004180B500AF074B20228A
:100620009A61064A05494523CB5CDBB204210B43A2
:10063000D9B24523D154C046BD4680BD00440041D7
:1006400090B583B000AF78600E4A0E494523CB5C6D
:10065000DBB201210B43D9B24523D15409497B6850
:10066000DBB21A1C0F231340D8B232228B5C040178
:100670000F200340181C231C03438B54C046BD4667
:1006800003B090BD0044004180B588B000AF7860F1
:100690000320FFF79BFFFFF7BFFF0320FFF7D0FF0B
:1006A0005A4B5A4A126A04210A431A62584B594A51
:1006B0005A80594B01221A60C046574B1B68DB0712
:1006C000DB0FDBB2002BF8D1544B00221A60534BE6
:1006D00000225A60524B00221A60514B00225A608D
:1006E0007B689B79052B02D10523FB6116E07B68B3
:1006F0009B79062B02D10623FB610FE07B689B7977
:10070000072B02D10723FB6108E07B689B79082B4C
:1007100002D10023FB6101E00023FB617B685B7970
:10072000002B02D10023BB6101E00123BB617B6888
:100730005B79022B02D100237B6102E080239B01C5
:100740007B617B681B79002B02D100233B6101E0B8
:1007500040233B617B681A78597809020A439978EB
:1007600009040A43DB781B0613431B0119002D48BB
:1007700001F03CFA0300FB607B681A7859780902A3
:100780000A43997809040A43DB781B0613431900CE
:10079000244801F02BFA03001A00FB681B01D31A4E
:1007A0005B08BB601C4BBA6912061100F0221205EF
:1007B0000A401D490A431A60174BFA690721114084
:1007C0007A6911433A690A43C02189020A435A608F
:1007D0001149FB689BB2DB04DB0C9AB2BB689BB28D
:1007E0005B039BB213439BB28B810B4B0A4A12688B
:1007F00002210A431A60084B04229A750920FFF768
:10080000B7FEC046BD4608B080BDC04600040040EB
:10081000000C00400E400000000800421C020020B6
:100820001401002000127A000420104080B584B02A
:1008300000AF7860194B1B680133194A134003D588
:10084000013B184A13430133BB600F23FB180022FE
:100850001A700920FFF7A2FE104B5A68BB689A4233
:1008600011D00E4B1B687A68D1B20C4AD3180A1CFF
:100870001A720A4BBA681A600F23FB1801221A7009
:10088000094B01229A750920FFF772FE0F23FB180E
:100890001B781800BD4604B080BDC0461C02002075
:1008A000FF00008000FFFFFF0008004280B584B019
:1008B00000AF78600F23FB1800221A700920FFF7A1
:1008C0006DFE154B5A68144B1B689A4219D0124B97
:1008D0005B68114AD3181B7ADBB21A007B681A6076
:1008E0000D4B5B6801330D4A134003D5013B0C4AA5
:1008F000134301331A00084B5A600F23FB180122DF
:100900001A700920FFF734FE0F23FB181B7818001C
:10091000BD4604B080BDC04614010020FF00008029
:1009200000FFFFFF80B584B000AF364B1B7EDBB20B
:10093000FB60FB68042213403BD0324B5B8B9BB2C5
:10094000BB60304B1B8D9BB27B602F4B1B68013310
:100950002E4A134003D5013B2D4A134301333B601C
:10096000BB680422134002D04020FFF7DBFDBB68C8
:100970000222134002D01020FFF7D4FDBB680122F1
:10098000134002D02020FFF7CDFD1F4B5A683B6873
:100990009A4203D14020FFF7C5FD0AE01A4B1B68BD
:1009A0007A68D1B2184AD3180A1C1A72164B3A68E0
:1009B0001A60FB68012213401FD0164B5A68154B72
:1009C0001B689A4203D10F4B01221A7515E00D499D
:1009D000104B5B680F4AD3181B7ADBB29BB20B85B6
:1009E0000C4B5B680133094A134003D5013B084AAD
:1009F000134301331A00074B5A60C046BD4604B08A
:100A000080BDC0460008004214010020FF000080A5
:100A100000FFFFFF1C02002090B583B000AF78609C
:100A20000F4A0F495823CB5CDBB201210B43D9B2EB
:100A30005823D1540A497B68DBB21A1C0F23134098
:100A4000D8B23C228B5C0F2404400F208343181C37
:100A5000231C03438B54C046BD4603B090BDC04623
:100A60000044004190B583B000AF78600E4A0E4953
:100A70005923CB5CDBB201210B43D9B25923D154AA
:100A800009497B68DBB21A1C0F231340D8B23C2201
:100A90008B5C04010F200340181C231C03438B5460
:100AA000C046BD4603B090BD0044004180B582B051
:100AB00000AF0620FFF7B0FF0620FFF7D3FF504B33
:100AC0004F4AD26920210A43DA614E4B4E4A5A807E
:100AD0004E4A137801210B431370C0464B4B9B7851
:100AE000DB07DB0FDBB2002BF8D1484A484B1B6811
:100AF0005B0BDBB2191C1F230B40D9B2138D081CF2
:100B00001F210140880143490B40191C031C0B4362
:100B100013853E4A3E4B1B689B0CDBB2191C1F23FE
:100B20000B40D9B2138D081C1F2108401F218B4395
:100B3000191C031C0B431385344A354B1B68DB0D12
:100B4000DBB2191C07230B40D9B2138D081C0721F7
:100B50000140080330490B40191C031C0B4313854B
:100B600000237B6007E07A682C4BD31800221A70B0
:100B70007B6801337B607B68FF2BF4DD234B274AC6
:100B80005A62224A13787F210B4013701F4A137850
:100B900004210B4313701D4A13890C218B431381CD
:100BA0001A4A138901218B431381184B08221A8397
:100BB00016490A23FF331A008B5C102003438B5421
:100BC000124A124B1B78DBB202210B43DBB21370CB
:100BD00000233B600CE03B688021180000F020F807
:100BE0003B680021180000F01BF83B6801333B60B4
:100BF0003B68072BEFDDC046BD4602B080BDC04656
:100C000000040040000C004006400000005000417D
:100C1000246080003FF8FFFFFF8FFFFF24030020C8
:100C200080B582B000AF786039603B68802B08D116
:100C30000A497B6808335A01535C7020834353543C
:100C400007E006497B6808335A01535C0720834359
:100C50005354C046BD4602B080BDC046005000415E
:100C600090B587B000AF78607B689B781A007F23CF
:100C70001340FB607B689B781A0080231340BB60A5
:100C80007B68DB781A00032313407B617B681A7949
:100C90005B791B0213439BB29B059B0D3B61BA68BA
:100CA000FB6811001800FFF7BBFF3B69082B02DC53
:100CB00000233B612FE03B69102B02DC01233B61E9
:100CC00029E03B69202B02DC02233B6123E03B69E6
:100CD000402B02DC03233B611DE03B69802B02DCDF
:100CE00004233B6117E03A6980235B009A4202DCEF
:100CF00005233B610FE03A6980239B009A4202DCA6
:100D000006233B6107E03B69544A934202DC072318
:100D10003B6100E0FEE77B69002B02D101237B6190
:100D20000DE07B69012B02D102237B6107E07B6927
:100D3000022B02D103237B6101E004237B61BB68AA
:100D4000802B45D146497B69DBB21A1C072313402F
:100D5000D8B2FB6808335A01535C072420400401D1
:100D600070208343181C231C034353543C49FA68E6
:100D700084235B0052018A18D218537802210B4356
:100D80005370374AFB6808335B01D218137902218C
:100D90000B431371324AFB6808335B01D218137995
:100DA000802149420B4313713B69DBB21A1C0723B4
:100DB0001340D9B22B4AFB685B01D31810335A6831
:100DC000072001400907284802400A435A6041E0D1
:100DD00023497B69DBB21A1C07231340D8B2FB6896
:100DE00008335A01535C0724044007208343181C2E
:100DF000231C034353541A49FA6884235B005201AD
:100E00008A18D218537801210B435370144AFB6897
:100E100008335B01D218137901210B431371104A77
:100E2000FB6808335B01D218537940210B4353719F
:100E30003B69DBB21A1C07231340D9B2094AFB688D
:100E40005B01D3185A680720014009070648024091
:100E50000A435A60C046BD4607B090BDFF0300007C
:100E60000050004124030020FFFFFF8F80B582B0B7
:100E700000AF786039603B68802B0BD10D4A7B68EE
:100E800008335B019B5C5B065B0FDBB25A1E934130
:100E9000DBB20AE0074A7B6808335B019B5C5B07B7
:100EA0005B0FDBB25A1E9341DBB21800BD4602B0A5
:100EB00080BDC0460050004180B582B000AF786070
:100EC00039603B68802B09D10B4A7B6808335B0192
:100ED000D3189B799B06DB0FDBB208E0064A7B68E0
:100EE00008335B01D3189B79DB06DB0FDBB21800FC
:100EF000BD4602B080BDC0460050004180B582B002
:100F000000AF786039603B68802B09D10B4A7B6861
:100F100008335B01D218537920210B43537108E049
:100F2000064A7B6808335B01D218537910210B43C2
:100F30005371C046BD4602B080BDC046005000415E
:100F400080B582B000AF786039603B68802B30D1CB
:100F5000324A7B6808335B01D3189B799B06DB0F11
:100F6000DBB2002B55D02D4A7B6808335B01D218C9
:100F7000137920210B431371284A7B6808335B01E6
:100F8000D318DB795B06DB0FDBB2002B41D0234AA1
:100F90007B6808335B01D318073340221A701F4A5D
:100FA0007B6808335B01D218137902210B4313715C
:100FB0002FE01A4A7B6808335B01D3189B79DB0664
:100FC000DB0FDBB2002B24D0144A7B6808335B01B3
:100FD000D218137910210B431371104A7B68083320
:100FE0005B01D318DB799B06DB0FDBB2002B10D043
:100FF0000A4A7B6808335B01D318073320221A7032
:10100000064A7B6808335B01D218137901210B4330
:101010001371C046BD4602B080BDC04600500041BD
:1010200080B582B000AF786005497B68DBB2802272
:1010300052421343DBB28B72C046BD4602B080BD44
:101040000050004180B584B000AFF860B9607A60AC
:10105000BA681749FB685B01CB1810331A607B68CC
:101060009BB29B049B0C99B2114AFB685B01D3189D
:1010700010335A688904890C920B92030A435A6010
:101080000B4AFB685B01D31810335A6809490A40C0
:101090005A60094AFB6808335B01D21853798021F2
:1010A00049420B435371C046BD4604B080BDC046A3
:1010B00024030020FF3F00F00050004180B584B0C1
:1010C00000AFF860B9607A60B968154BFA685201F0
:1010D000D1507B689BB29B049B0C99B2104AFB6871
:1010E0005B01D3185A688904890C89030D480240B2
:1010F0000A435A600A4AFB685B01D3185A68920B8C
:1011000092035A60084AFB6808335B01D2181379CE
:1011100040210B431371C046BD4604B080BDC0469C
:1011200024030020FF3F00F00050004180B500AFD5
:101130000F4B5A69920B92035A610E4A0823FF33F0
:101140000221D1540B490623FF331A008B5C802007
:10115000404203438B54C046064A0823FF33D35C06
:101160009B07DB0FDBB2002BF6D0C046BD4680BD2F
:10117000240300200050004180B500AF054906233C
:10118000FF331A008B5C202003438B54C046BD46BE
:1011900080BDC0460050004180B584B000AF78608B
:1011A0003960274BDB791A003B689A4216DB002333
:1011B000FB600BE0FB687A68D3181978214AFB685A
:1011C000D3180A1C1A70FB680133FB60FA683B688D
:1011D0009A42EFDB1B4A1C4B1A6102E07A681A4BF9
:1011E0001A613B689BB29B049B0C99B2164B5A69DF
:1011F0008904890C920B92030A435A61124B5A6973
:1012000012490A405A61124A0823FF330221D1547D
:101210000F490623FF331A008B5C802040420343B2
:101220008B54C0460A4A0823FF33D35C9B07DB0F6D
:10123000DBB2002BF6D0C046BD4604B080BDC04630
:101240000C0000202404002024030020FF3F00F0B5
:101250000050004180B582B000AF7860034B7A68DF
:101260001A60C046BD4602B080BDC046A40400203E
:1012700080B584B000AF874B9B8B1B07DB0FDBB2C5
:10128000002B64D0834B08229A83824B80229A726F
:101290000023BB600CE0BB6880211800FFF7C0FC96
:1012A000BB6800211800FFF7BBFCBB680133BB60C3
:1012B000BB68072BEFDD774A80235B001121D154F7
:1012C00074490623FF331A008B5C402003438B5480
:1012D000704982235A008B5C8020404203438B5428
:1012E0006D4B5A696D490A40C02189050A435A610C
:1012F0006B4A694B1A60684B5A6868490A40C021BA
:1013000089050A435A60644B5A6866490A4080213D
:1013100049030A435A60604B5A68920B92035A6021
:101320005C4982235A008B5C402003438B5459490B
:101330000A23FF331A008B5C102003438B5455495A
:101340000A23FF331A008B5C012003438B54514A5C
:101350000823FF33D35CDB06DB0FDBB2002B10D09E
:101360004C4A0823FF331021D1544A4982235A00A2
:101370008B5C402003438B54494B180000F000FA6B
:1013800026E0444A0823FF33D35CDB07DB0FDBB2E4
:10139000002B1DD03F4A0823FF330121D1543D4982
:1013A00082235A008B5C402003438B543E4B1B68C6
:1013B000002B0DD03C4B1A68374B5B689B049B0C91
:1013C0009BB21900364B18009047374B00221A6029
:1013D000304B1B8C9BB2FB6000237B6050E02D4A9E
:1013E0007B6808335B01D31807331B78DBB23B60A3
:1013F00001227B689A401300DA43FB681340FB60CC
:101400003B68012213401ED0224A7B6808335B01EF
:10141000D318073301221A701E4A7B6808335B0118
:10142000D218537940210B4353711B4A7B685B01EF
:10143000D3185B689B049B0C9BB21A007B6811005D
:10144000180000F0BBFB3B680222134015D0114A84
:101450007B6808335B01D318073302221A700D4AE8
:101460007B6808335B01D2181379802149420B4312
:1014700013717B68180000F08BFB7B6801337B6085
:101480007B68072B02DCFB68002BA8DCC046BD464E
:1014900004B080BD0050004124030020FFFFFF8FF7
:1014A00064040020FF3F00F0A404002080B500AFDA
:1014B000164B1900032000F053F9154B19000120B9
:1014C00000F04EF9134B1900022000F049F9124BBD
:1014D00001221A70104B20225A700F4B00225A80A2
:1014E0000D4B00229A800C4B0222DA800A4B00221C
:1014F0001A810A4B00221A60094B00221A70094B0C
:101500001800FEF763FFC046BD4680BDD51500003C
:101510002516000039160000A8040020B40400209D
:10152000B80400200400002080B582B000AF7860CD
:1015300039603A687B6819000120FFF783FDC046D7
:10154000BD4602B080BD80B582B000AF7860396022
:101550003A687B6819000220FFF7B0FDC046BD461F
:1015600002B080BD80B582B000AF7860054B1A68CC
:101570007B681A43034B1A6000F006F8C046BD466C
:1015800002B080BDB404002080B500AF0E4B1B78C4
:10159000002B15D10D4B1B891A000D4B1B689A426D
:1015A0000FD0094B01221A70094B1B689AB2074BE6
:1015B0001A81064B0A2219000320FFF743FD00E0C1
:1015C000C046BD4680BDC046B8040020A804002027
:1015D000B404002080B584B000AF78607C23FB6049
:1015E0000D4B00221A700D4B1B891BB2FA6812B208
:1015F000D24312B213401BB29AB2084B1A81FB6855
:10160000DA43074B1B681A40054B1A60FFF7BCFF13
:10161000C046BD4604B080BDB8040020A804002028
:10162000B404002080B582B000AF7860FEF780FE81
:10163000C046BD4602B080BD80B582B000AF7860C4
:101640007B681800FEF7A0FEC046BD4602B080BD14
:1016500080B584B000AF786039607B68FB60FFF7CD
:1016600065FD3B680F2B0CD1084AFB68100008335E
:101670000722190000F046FB044B1800FEF7A6FEF7
:1016800000E0C046BD4604B080BDC0460400002056
:1016900080B584B000AF78607B689A79DB791B02F3
:1016A00013439BB2FB607B685B781B027A681278FD
:1016B0001343194A93420FD0184A934218D0184A3C
:1016C000934221D1FB68072B00DD0723FB60154BFC
:1016D0001800FFF7BFFD19E0FB68072B00DD0723AB
:1016E000FB60FA68104B11001800FFF755FD0DE084
:1016F0007B689A78DB781B0213439BB21800FEF7D5
:1017000071FEFFF713FD01E0002300E00123180044
:10171000BD4604B080BDC046A121000021220000CA
:1017200021200000511600000400002080B582B086
:1017300000AF00237B6007E0084B7A68920000212D
:10174000D1507B6801337B607B68072BF4DDFFF7AA
:10175000ADF9C046BD4602B080BDC046BC04002005
:1017600080B582B000AF78603960044B7A6892002F
:101770003968D150C046BD4602B080BDBC040020CF
:1017800080B592B000AF78607B685B781B027A68A6
:1017900012781343C0229200934200D160E1C0222C
:1017A0009200934217DC822B00D124E103DC802BD2
:1017B00000DAD7E114E10222FF32934200D18BE13B
:1017C00081225200934200D189E18022520093424B
:1017D00000D17EE1C6E1A022D200934200D1AFE069
:1017E000A022D200934208DCD64A934200D13AE1CB
:1017F000D54A934200D139E1B4E1882212019342E3
:1018000000D1E0E090221201934200D1A4E0D02266
:10181000D200934200D0A5E17B689A78DB781B0266
:1018200013439BB21B0A9BB27B637B689A78DB787D
:101830001B0213439BB21A00FF2313403B637B68D8
:101840009A79DB791B0213439BB2FB627B6B012B02
:101850000DD1BE4B1B78FA6A934200DD1300FB6288
:10186000FA6ABA4B11001800FFF796FC8BE17B6B0C
:10187000022B11D1B64B9A78DB781B0213439BB233
:10188000FA6A934200DD1300FB62FA6AB04B110062
:101890001800FFF781FC76E17B6B032B4DD13B6B8E
:1018A000002B0DD1AB4B1B78FA6A934200DD13007D
:1018B000FB62FA6AA74B11001800FFF76DFC62E1AA
:1018C0003B6B022B36DCA44B3A6B9200D3587B6403
:1018D00000233B6412E03B6C01335B007A6C1178AF
:1018E0009E4AD1543B6C5B0003339C4A0021D15487
:1018F0003B6C01333B647B6C01337B647B6C1B78FA
:10190000002BE8D13B6C0133DBB2DB18DAB2934B2E
:101910001A70924B03225A70904B1B78FA6A9342CA
:1019200000DD1300FB62FA6A8C4B11001800FFF710
:1019300033FC28E1FFF720FC25E1FFF71DFC22E145
:10194000FFF7F4FB7B689A78DB781B0213439BB2AA
:101950001800FFF765FB16E17B689A78DB781B02BD
:1019600013439BB21A007E4B1A60FFF7DFFB7C4BE0
:101970001B68002B00D103E1754B9A78DB781B02C2
:1019800013439BB2FB63724BBB6313E0BB6B5B788F
:10199000052B03D1BB6B1800FFF762F9BB6B1B78FB
:1019A0001A00FB6B9B1AFB63BB6B1B781A00BB6BAB
:1019B0009B18BB63FB6B002BE8D1694B1B681800BD
:1019C000FEF7F4FCDCE0664B1B68DAB21323FB186D
:1019D0001A701323FB1801211800FFF7DDFBD2E07A
:1019E0001023FB1800221A801023FB180221180074
:1019F000FFF7D2FBC7E07B681A795B791B021343C0
:101A00009BB21A007F231340BB627B681A795B7913
:101A10001B0213439BB21A00802313407B620E23E8
:101A2000FB1800221A807A6ABB6A11001800FFF7BF
:101A30001DFA031E11D07A6ABB6A11001800FFF765
:101A40003BFA03009AB20E23FB181A800E23FB18F0
:101A500002211800FFF7A0FB95E0FFF78DFB92E055
:101A6000FFF78AFB8FE0FFF761FB8CE07B681A7958
:101A70005B791B0213439BB21A007F2313403B6226
:101A80007B681A795B791B0213439BB21A0080238F
:101A90001340FB617B689A78DB781B0213439BB28F
:101AA000002B13D13B6A002B10D0FA693B6A11005E
:101AB0001800FFF7DBF9031E08D0FA693B6A110032
:101AC0001800FFF71BFAFFF731FB5CE0FFF754FB50
:101AD00059E0FFF751FB56E0FFF728FB53E07B6826
:101AE0001A795B791B0213439BB21A007F231340C0
:101AF000BB617B681A795B791B0213439BB21A00A6
:101B0000802313407B617B689A78DB781B02134348
:101B10009BB2002B13D1BB69002B10D07A69BB6933
:101B200011001800FFF7A2F9031E08D07A69BB69FB
:101B300011001800FFF704FAFFF7F8FA23E0FFF7A7
:101B40001BFB20E001030000020300000C0000204A
:101B5000200000206400002068000020E004002035
:101B6000DC0400207B681800FFF792FD03001A00D8
:101B700001235340DBB2002B04D0FFF7FDFA01E054
:101B8000C04600E0C046C046BD4612B080BDC0465B
:101B900080B582B000AF7860074B7A689200D35866
:101BA000002B05D0044B7A689200D3580020984748
:101BB000C046BD4602B080BDBC04002080B582B0E6
:101BC00000AF78603960084B7A689200D358002BD8
:101BD00006D0054B7A689200D3583A6810009847AF
:101BE000C046BD4602B080BDBC04002000224308B0
:101BF0008B4274D303098B425FD3030A8B4244D3D5
:101C0000030B8B4228D3030C8B420DD3FF22090216
:101C100012BA030C8B4202D31212090265D0030BD5
:101C20008B4219D300E0090AC30B8B4201D3CB03CB
:101C3000C01A5241830B8B4201D38B03C01A52410D
:101C4000430B8B4201D34B03C01A5241030B8B420F
:101C500001D30B03C01A5241C30A8B4201D3CB02FA
:101C6000C01A5241830A8B4201D38B02C01A5241DF
:101C7000430A8B4201D34B02C01A5241030A8B42E2
:101C800001D30B02C01A5241CDD2C3098B4201D3FA
:101C9000CB01C01A524183098B4201D38B01C01A78
:101CA000524143098B4201D34B01C01A52410309EF
:101CB0008B4201D30B01C01A5241C3088B4201D39E
:101CC000CB00C01A524183088B4201D38B00C01A4B
:101CD000524143088B4201D34B00C01A5241411A72
:101CE00000D20146524110467047FFE701B500207F
:101CF00000F006F802BDC0460029F7D076E770472D
:101D00007047C046F0B505000F2A2FD90B000343DA
:101D10009B0734D116000C000300103E3509013535
:101D20002D01451927681F6067685F60A7689F607D
:101D3000E7681034DF6010339D42F3D10F239E43D8
:101D40001036851989191340032B1AD91E1F002339
:101D5000B4080134A400CF58EF500433A342FAD1A1
:101D60000324A643331D2240C918ED18002A05D0CC
:101D70000023CC5CEC5401339342FAD1F0BD050052
:101D8000F6E71A00F2E7C046416C657820546172AC
:101D900061646F76000000005669727475616C2092
:0C1DA000434F4D2D506F727400FFFFFF89
:041DAC00F8B5C04680
:041DB000F8B5C0467C
:101DB40001FFFFFF00E10000000008FF1201100115
:101DC4000200004041234300000101020001FFFF23
:101DD40009024300020100803209040000010202EA
:101DE400000005240010010424020205240102015C
:101DF40005240600010705830340000109040100CE
:101E0400020A0000000705810240000007050202E3
:101E1400400000FF0403090400000000881D0000C6
:041E2400981D000005
:040000030000008D6C
:00000001FF
